{
  "address": "0xFb619dE66AE5cdEdd6A140f2AA43Ceff4F1a657f",
  "abi": [
    {
      "inputs": [
        {
          "internalType": "address",
          "name": "exampleExternalContractAddress",
          "type": "address"
        }
      ],
      "stateMutability": "nonpayable",
      "type": "constructor"
    },
    {
      "anonymous": false,
      "inputs": [
        {
          "indexed": false,
          "internalType": "address",
          "name": "stakerAddress",
          "type": "address"
        },
        {
          "indexed": false,
          "internalType": "uint256",
          "name": "value",
          "type": "uint256"
        }
      ],
      "name": "Stake",
      "type": "event"
    },
    {
      "inputs": [
        {
          "internalType": "address",
          "name": "_stakerAddress",
          "type": "address"
        },
        {
          "internalType": "uint256",
          "name": "amount",
          "type": "uint256"
        }
      ],
      "name": "_stake",
      "outputs": [
        {
          "internalType": "bool",
          "name": "",
          "type": "bool"
        }
      ],
      "stateMutability": "payable",
      "type": "function"
    },
    {
      "inputs": [
        {
          "internalType": "address",
          "name": "walletAddress",
          "type": "address"
        }
      ],
      "name": "balance",
      "outputs": [
        {
          "internalType": "uint256",
          "name": "",
          "type": "uint256"
        }
      ],
      "stateMutability": "view",
      "type": "function"
    },
    {
      "inputs": [
        {
          "internalType": "address",
          "name": "",
          "type": "address"
        }
      ],
      "name": "balances",
      "outputs": [
        {
          "internalType": "uint256",
          "name": "",
          "type": "uint256"
        }
      ],
      "stateMutability": "view",
      "type": "function"
    },
    {
      "inputs": [],
      "name": "deadline",
      "outputs": [
        {
          "internalType": "uint256",
          "name": "",
          "type": "uint256"
        }
      ],
      "stateMutability": "view",
      "type": "function"
    },
    {
      "inputs": [],
      "name": "exampleExternalContract",
      "outputs": [
        {
          "internalType": "contract ExampleExternalContract",
          "name": "",
          "type": "address"
        }
      ],
      "stateMutability": "view",
      "type": "function"
    },
    {
      "inputs": [],
      "name": "execute",
      "outputs": [
        {
          "internalType": "bool",
          "name": "",
          "type": "bool"
        }
      ],
      "stateMutability": "nonpayable",
      "type": "function"
    },
    {
      "inputs": [],
      "name": "stake",
      "outputs": [
        {
          "internalType": "bool",
          "name": "",
          "type": "bool"
        }
      ],
      "stateMutability": "payable",
      "type": "function"
    },
    {
      "inputs": [],
      "name": "timeLeft",
      "outputs": [
        {
          "internalType": "uint256",
          "name": "",
          "type": "uint256"
        }
      ],
      "stateMutability": "view",
      "type": "function"
    },
    {
      "inputs": [],
      "name": "treshold",
      "outputs": [
        {
          "internalType": "uint256",
          "name": "",
          "type": "uint256"
        }
      ],
      "stateMutability": "view",
      "type": "function"
    },
    {
      "inputs": [],
      "name": "withdraw",
      "outputs": [
        {
          "internalType": "bool",
          "name": "",
          "type": "bool"
        }
      ],
      "stateMutability": "payable",
      "type": "function"
    },
    {
      "stateMutability": "payable",
      "type": "receive"
    }
  ],
  "transactionHash": "0x929c2defd59e8ba88aa4f0be350f32e711e640299b63b24dc3dfbea2708d4cb0",
  "args": [
    "0x75D4fe6bC842D76FB4981202949611D043308583"
  ],
  "numDeployments": 1,
  "solcInputHash": "ecae7db86623802aa5fadf8ade490384",
  "bytecode": "0x608060405261000f42601e610096565b60025534801561001e57600080fd5b5060405161078438038061078483398101604081905261003d91610068565b600180546001600160a01b0390921661010002610100600160a81b03199092169190911790556100ba565b600060208284031215610079578081fd5b81516001600160a01b038116811461008f578182fd5b9392505050565b600082198211156100b557634e487b7160e01b81526011600452602481fd5b500190565b6106bb806100c96000396000f3fe6080604052600436106100955760003560e01c80633ccfd60b116100595780633ccfd60b1461014b57806361461954146101535780639f75f22714610168578063aa0d97b3146101a5578063e3d670d7146101b857600080fd5b80631300a6d1146100ac57806327e235e3146100d457806329dcb0cf14610101578063382512e8146101175780633a4b66f11461013357600080fd5b366100a7576100a433346101ee565b50005b600080fd5b3480156100b857600080fd5b506100c16102ba565b6040519081526020015b60405180910390f35b3480156100e057600080fd5b506100c16100ef3660046105f7565b60006020819052908152604090205481565b34801561010d57600080fd5b506100c160025481565b34801561012357600080fd5b506100c1670de0b6b3a764000081565b61013b6102d2565b60405190151581526020016100cb565b61013b6102e5565b34801561015f57600080fd5b5061013b610479565b34801561017457600080fd5b5060015461018d9061010090046001600160a01b031681565b6040516001600160a01b0390911681526020016100cb565b61013b6101b3366004610618565b6101ee565b3480156101c457600080fd5b506100c16101d33660046105f7565b6001600160a01b031660009081526020819052604090205490565b6000816102425760405162461bcd60e51b815260206004820152601c60248201527f416d6f756e742073686f756c64206265206c657373207468616e20300000000060448201526064015b60405180910390fd5b6001600160a01b0383166000908152602081905260408120805484929061026a908490610661565b9091555050604080516001600160a01b0385168152602081018490527febedb8b3c678666e7f36970bc8f57abf6d8fa2e828c0da91ea5b75bf68ed101a910160405180910390a150600192915050565b600060025442106102cb5750600090565b5060025490565b6000806102df33346101ee565b92915050565b600060018054906101000a90046001600160a01b03166001600160a01b0316639d9a7fe96040518163ffffffff1660e01b815260040160206040518083038186803b15801561033357600080fd5b505afa158015610347573d6000803e3d6000fd5b505050506040513d601f19601f8201168201806040525081019061036b9190610641565b15156001146103ac5760405162461bcd60e51b815260206004820152600d60248201526c139bdd0818dbdb5c1b195d1959609a1b6044820152606401610239565b60015460ff166103fe5760405162461bcd60e51b815260206004820152601760248201527f4e6f74206f70656e20666f72207769746864726177616c0000000000000000006044820152606401610239565b33600081815260208190526040808220549051909190839083908381818185875af1925050503d8060008114610450576040519150601f19603f3d011682016040523d82523d6000602084013e610455565b606091505b50506001600160a01b03909316600090815260208190526040812055509091505090565b600060018054906101000a90046001600160a01b03166001600160a01b0316639d9a7fe96040518163ffffffff1660e01b815260040160206040518083038186803b1580156104c757600080fd5b505afa1580156104db573d6000803e3d6000fd5b505050506040513d601f19601f820116820180604052508101906104ff9190610641565b15156001146105405760405162461bcd60e51b815260206004820152600d60248201526c139bdd0818dbdb5c1b195d1959609a1b6044820152606401610239565b670de0b6b3a76400004711156105b85760018054906101000a90046001600160a01b03166001600160a01b031663522e1177476040518263ffffffff1660e01b81526004016000604051808303818588803b15801561059e57600080fd5b505af11580156105b2573d6000803e3d6000fd5b50505050505b670de0b6b3a76400004710156105d5576001805460ff1916811790555b50600190565b80356001600160a01b03811681146105f257600080fd5b919050565b600060208284031215610608578081fd5b610611826105db565b9392505050565b6000806040838503121561062a578081fd5b610633836105db565b946020939093013593505050565b600060208284031215610652578081fd5b81518015158114610611578182fd5b6000821982111561068057634e487b7160e01b81526011600452602481fd5b50019056fea26469706673582212201c67b8f1bb8f5cf70d0b1e9af694439bdf2da362a80add14f1d71a659f83cec564736f6c63430008040033",
  "devdoc": {
    "kind": "dev",
    "methods": {},
    "version": 1
  },
  "userdoc": {
    "kind": "user",
    "methods": {},
    "version": 1
  },
  "storageLayout": {
    "storage": [
      {
        "astId": 20,
        "contract": "contracts/Staker.sol:Staker",
        "label": "balances",
        "offset": 0,
        "slot": "0",
        "type": "t_mapping(t_address,t_uint256)"
      },
      {
        "astId": 25,
        "contract": "contracts/Staker.sol:Staker",
        "label": "openForWithdraw",
        "offset": 0,
        "slot": "1",
        "type": "t_bool"
      },
      {
        "astId": 28,
        "contract": "contracts/Staker.sol:Staker",
        "label": "exampleExternalContract",
        "offset": 1,
        "slot": "1",
        "type": "t_contract(ExampleExternalContract)12"
      },
      {
        "astId": 40,
        "contract": "contracts/Staker.sol:Staker",
        "label": "deadline",
        "offset": 0,
        "slot": "2",
        "type": "t_uint256"
      }
    ],
    "types": {
      "t_address": {
        "encoding": "inplace",
        "label": "address",
        "numberOfBytes": "20"
      },
      "t_bool": {
        "encoding": "inplace",
        "label": "bool",
        "numberOfBytes": "1"
      },
      "t_contract(ExampleExternalContract)12": {
        "encoding": "inplace",
        "label": "contract ExampleExternalContract",
        "numberOfBytes": "20"
      },
      "t_mapping(t_address,t_uint256)": {
        "encoding": "mapping",
        "key": "t_address",
        "label": "mapping(address => uint256)",
        "numberOfBytes": "32",
        "value": "t_uint256"
      },
      "t_uint256": {
        "encoding": "inplace",
        "label": "uint256",
        "numberOfBytes": "32"
      }
    }
  }
}